:100000000C9468000C9490000C9490000C94900058
:100010000C9490000C9490000C9490000C94900020
:100020000C9490000C9490000C9490000C94900010
:100030000C9490000C9490000C9490000C94900000
:100040000C94980C0C9490000C94080D0C94E20CF9
:100050000C9490000C9490000C9490000C949000E0
:100060000C943A0D0C9490001F1C1F1E1F1E1F1F86
:100070001E1F1E1F00000000240027002A00000091
:100080000000250028002B000000000023002600AF
:10009000290004040404040404040202020202020B
:1000A000030303030303010204081020408001023C
:1000B00004081020010204081020000000080002BB
:1000C0000100000304070000000000000000590EBA
:1000D00011241FBECFEFD4E0DEBFCDBF24E0ACEBD8
:1000E000B2E001C01D92A33AB207E1F712E0A0E02E
:1000F000B1E0EAECFBE202C005900D92AC3BB10727
:10010000D9F710E0C8E6D0E004C02197FE010E94B4
:100110002E13C736D107C9F70E94450F0C94E3157B
:100120000C94000091E090938103809380031092DF
:100130007F0310927E030895CF93DF93DC01169620
:100140002C9148E854E0E5E8F4E0C3E8D4E021115C
:1001500006C047E854E0E1E8F4E0CFE7D4E0DC0192
:1001600015961C921E92149728813981232B59F4DD
:100170009183808399838883FA0180818F5F808354
:10018000DF91CF910895C081D1819D838C8391832C
:100190008083F2CF833081F028F4813099F082306F
:1001A000A9F008958730A9F08830C9F08430B1F4FF
:1001B000809180008F7D03C0809180008F77809335
:1001C0008000089584B58F7784BD089584B58F7DB0
:1001D000FBCF8091B0008F778093B000089580911D
:1001E000B0008F7DF9CFCF93DF93282F30E0F90156
:1001F000E654FF4F8491F901EA55FF4FD491F9017C
:10020000EE56FF4FC491CC23A1F081110E94CA0089
:10021000EC2FF0E0EE0FFF1FE857FF4FA591B491D0
:10022000EC91ED2381E090E009F480E0DF91CF9143
:10023000089580E090E0FACF1F93CF93DF93282FAB
:1002400030E0F901E654FF4F8491F901EA55FF4F80
:10025000D491F901EE56FF4FC491CC23A9F0162F8B
:1002600081110E94CA00EC2FF0E0EE0FFF1FE25850
:10027000FF4FA591B4918FB7F894EC91111108C07C
:10028000D095DE23DC938FBFDF91CF911F9108952E
:10029000DE2BF8CFCF93DF9390E0FC01EA55FF4FC0
:1002A00024918E569F4FFC0184918823D1F090E0D9
:1002B000880F991FFC01EC58FF4FA591B491FC01E8
:1002C000E258FF4FC591D49161110EC09FB7F894C9
:1002D0008C91E22FE0958E238C932881E223E88392
:1002E0009FBFDF91CF9108958FB7F894EC91E22BE7
:1002F000EC938FBFF6CF3FB7F8948091290390918C
:100300002A03A0912B03B0912C0326B5A89B05C00E
:100310002F3F19F00196A11DB11D3FBFBA2FA92F84
:10032000982F8827BC01CD01620F711D811D911D81
:1003300042E0660F771F881F991F4A95D1F70895ED
:100340008F929F92AF92BF92CF92DF92EF92FF92E5
:100350004B015C010E947B016B017C010E947B01CF
:100360006C197D098E099F09683E734081059105CE
:10037000A8F321E0821A9108A108B10888EEC80EFE
:1003800083E0D81EE11CF11C81149104A104B10486
:1003900029F7FF90EF90DF90CF90BF90AF909F90A4
:1003A0008F90089508950895AF92BF92CF92DF92F3
:1003B000EF92FF920F931F93CF93DF936C017B011A
:1003C0008B01040F151FEB015E01AE18BF08C017AB
:1003D000D10759F06991D601ED91FC910190F0811E
:1003E000E02DC6010995892B79F7C501DF91CF91E1
:1003F0001F910F91FF90EF90DF90CF90BF90AF9043
:100400000895FC01538D448D252F30E0842F90E01A
:10041000821B930B541710F0CF96089501970895FF
:10042000FC01918D828D981761F0A28DAE0FBF2FC8
:10043000B11D5D968C91928D9F5F9F73928F90E01E
:1004400008958FEF9FEF0895FC01918D828D98178D
:1004500031F0828DE80FF11D858D90E008958FEFCA
:100460009FEF0895FC01918D228D892F90E0805C93
:100470009F4F821B91098F739927089581ED93E017
:100480000E94320221E0892B09F420E0822F089596
:1004900080E090E0892B29F00E943E0281110C94AB
:1004A00000000895FC01A48DA80FB92FB11DA35A17
:1004B000BF4F2C91848D90E001968F739927848F84
:1004C000A689B7892C93A089B1898C9183708064A7
:1004D0008C93938D848D981306C00288F389E02D48
:1004E00080818F7D80830895EF92FF920F931F93F9
:1004F000CF93DF93EC0181E0888F9B8D8C8D9813D7
:100500001AC0E889F989808185FF15C09FB7F894E2
:10051000EE89FF896083E889F9898081837080642E
:1005200080839FBF81E090E0DF91CF911F910F9179
:10053000FF90EF900895F62E0B8D10E00F5F1F4F88
:100540000F731127E02E8C8D8E110CC00FB607FC97
:10055000FACFE889F989808185FFF5CFCE010E9425
:100560005202F1CFEB8DEC0FFD2FF11DE35AFF4F3F
:10057000F0829FB7F8940B8FEA89FB8980818062B3
:10058000CFCFCF93DF93EC01888D8823B9F0AA8970
:10059000BB89E889F9898C9185FD03C0808186FD3E
:1005A0000DC00FB607FCF7CF8C9185FFF2CF80818D
:1005B00085FFEDCFCE010E945202E9CFDF91CF91AE
:1005C0000895DC01ED91FC910190F081E02D0994FA
:1005D0002091FD02260F3327331F21323105ECF421
:1005E00020915603FC0190E080E0243069F082E025
:1005F0000895A091FD022191AC0143525D4FA40FDB
:10060000B52FB11D2C930196861798F38091FD02AA
:10061000680F6093FD0280E0089581E008951092D4
:10062000560381E0809355031092500361E082E10C
:100630000E941C0161E083E10E941C01E9EBF0E0F3
:1006400080818E7F808380818D7F808388E480930A
:10065000B80085E48093BC000895CF93DF9391E0C8
:100660009093DC028823B9F0C091B800D091BA0011
:100670008091BC008A7B8093BC0060E082E10E9494
:100680001C0160E083E10E941C010E940F03D093D3
:10069000BA00C093B800DF91CF9108950895E0911A
:1006A0005D0380915C03E81730F4F0E0E25AFC4F00
:1006B000808190E008958FEF9FEF089590915D0302
:1006C00080915C032FEF3FEF981748F4E92FF0E09B
:1006D000E25AFC4F208130E09F5F90935D03C90197
:1006E000089580915C0390915D03891B990B089597
:1006F000CF92DF92EF92FF920F931F93CF93DF93EE
:100700007C01CB018A0120918103222389F0EB0136
:100710006B01C40ED51ECC15DD0569F06991D701BA
:10072000ED91FC910190F081E02DC7010995F3CF87
:10073000642F0E94E802C801DF91CF911F910F91B1
:10074000FF90EF90DF90CF900895CF93DF931F92AB
:10075000CDB7DEB76983209181032223F9F0209180
:100760007E03203258F021E030E0FC013383228305
:1007700090E080E00F90DF91CF91089580917F030A
:10078000E82FF0E0E454FD4F998190838F5F8093D0
:100790007F0380937E0381E090E0ECCF61E0CE01A7
:1007A00001960E94E802F7CFCF92DF92EF92FF927C
:1007B0000F931F93CF93DF93D0917E0381E0D132CB
:1007C00008F09CC0C09180030E947B016B017C01FA
:1007D0008091560381116CC082E08093560381E0C2
:1007E000809355038FEF8093540310925303D0935B
:1007F0005203ACEBB2E0E0E3F3E080E0D8138DC04D
:100800001092510380915103CC0FC82BC093510318
:1008100080915003813009F084C0109250030E94EF
:100820007B016B017C01809151038093BB0080911F
:10083000580390915903A0915A03B0915B03892BFF
:100840008A2B8B2BA1F00E947B0100915803109101
:10085000590320915A0330915B036C197D098E096D
:100860009F09061717072807390708F442C0809127
:10087000BC0083FDD8CF85EC8093BC000E947B0137
:100880006B017C0180915603823009F44CC0809149
:1008900054038F3F09F469C080915403803209F4F6
:1008A00066C080915403803309F463C084E026C09D
:1008B0008091580390915903A0915A03B0915B0322
:1008C000892B8A2B8B2B09F483CF0E947B0100910B
:1008D00058031091590320915A0330915B036C190E
:1008E0007D098E099F09061717072807390708F0A1
:1008F0006FCF809157030E942D0385E010927F03F4
:1009000010927E0310928103DF91CF911F910F917E
:10091000FF90EF90DF90CF9008959D9191938F5F1E
:100920006DCF85EEA9CF8091580390915903A09186
:100930005A03B0915B03892B8A2B8B2B09F4A2CF2E
:100940000E947B01009158031091590320915A0392
:1009500030915B036C197D098E099F0906171707F3
:100960002807390708F08ECFC4CF80E0C7CF82E0D8
:10097000C5CF83E0C3CF90E080E008950F931F932D
:10098000CF93DF93EC018A81882321F061E0888195
:100990000E944A0160E088810E941C0183E090E08F
:1009A0000197F1F761E088810E941C0183E290E0E9
:1009B0000197F1F760E088810E941C018A818823F9
:1009C00021F060E088810E944A010E947B016B83D4
:1009D0007C838D839E8389810E94F300892B99F407
:1009E0000E947B010B811C812D813E81601B710B5C
:1009F000820B930B0F81188529853A8506171707F7
:100A00002807390740F70E947B016B837C838D8325
:100A10009E8389810E94F300892B99F00E947B01BB
:100A20000B811C812D813E81601B710B820B930B0E
:100A30000F81188529853A85061717072807390772
:100A400040F70E947B012B813C81CB01821B930BE1
:100A5000DF91CF911F910F910895CF92DF92EF9286
:100A6000FF920F931F930E947B016B017C01809189
:100A70005603811163C081E0809356038093550330
:100A80009FEF90935403109253031092520380935C
:100A9000510380915103806D8093510380915003E5
:100AA000813009F07CC0109250030E947B016B01E1
:100AB0007C01809151038093BB00809158039091F9
:100AC0005903A0915A03B0915B03892B8A2B8B2B7E
:100AD000A1F00E947B0100915803109159032091CD
:100AE0005A0330915B036C197D098E099F09061723
:100AF00017072807390708F442C08091BC0083FD1E
:100B0000D8CF85EC8093BC000E947B016B017C01F7
:100B100080915603813009F444C0809153038111C0
:100B200062C080915303A0E3B3E0EEE5F3E090E010
:100B3000981751F12D9121939F5FFACF809158031F
:100B400090915903A0915A03B0915B03892B8A2B92
:100B50008B2B09F48CCF0E947B01009158031091DC
:100B6000590320915A0330915B036C197D098E095A
:100B70009F09061717072807390708F078CF8091D3
:100B800057030E942D0380E010925D0380935C0365
:100B90001F910F91FF90EF90DF90CF90089585EE19
:100BA000B1CF8091580390915903A0915A03B0910D
:100BB0005B03892B8A2B8B2B09F4AACF0E947B0124
:100BC000009158031091590320915A0330915B030F
:100BD0006C197D098E099F09061717072807390721
:100BE00008F096CFCCCF81E09ECF88E60E9492009D
:100BF00066E070E08091890490918A040E94E1028D
:100C00008091890490918A040E94D4038091890480
:100C100090918A040E942D058091890490918A0404
:100C2000DC01ED91FC910284F385E02D0995982F6C
:100C300092959F708F70BAE09B9F800D112408954C
:100C400088E60E94920065E070E0809189049091AE
:100C50008A040E94E1028091890490918A040E9492
:100C6000D4038091890490918A040E942D0580917B
:100C7000890490918A04DC01ED91FC910284F38552
:100C8000E02D0995982F991F9927991F90932F036D
:100C9000982F929597708F70BAE09B9F800D1124CA
:100CA000089588E60E94920064E070E080918904D3
:100CB00090918A040E94E1028091890490918A04B3
:100CC0000E94D4038091890490918A040E942D058A
:100CD0008091890490918A04DC01ED91FC91028459
:100CE000F385E02D0995982F92959F708F70BAE04B
:100CF0009B9F800D1124089588E60E94920062E077
:100D000070E08091890490918A040E94E1028091B0
:100D1000890490918A040E94D4038091890490915F
:100D20008A040E942D058091890490918A04DC0137
:100D3000ED91FC910284F385E02D099521E0AC0151
:100D40004074552786FF20E020932E03282F2295FC
:100D50002F70382F3F70452B61F085FB992790F954
:100D600090932D032170832FBAE02B9F800D1124C7
:100D700008952370832F9AE0299F800D11240895F0
:100D800088E60E94920061E070E080918904909171
:100D90008A040E94E1028091890490918A040E9451
:100DA000D4038091890490918A040E942D0580913A
:100DB000890490918A04DC01ED91FC910284F38511
:100DC000E02D0995982F92959F708F70BAE09B9FA8
:100DD000800D1124089588E60E94920070E060E082
:100DE0008091890490918A040E94E1028091890493
:100DF00090918A040E94D4038091890490918A047E
:100E00000E942D058091890490918A04DC01ED9166
:100E1000FC910284F385E02D0995982F92959F709F
:100E20008F70BAE09B9F800D11240895FB01019003
:100E30000020E9F73197AF01461B570BDC01ED911C
:100E4000FC910280F381E02D09948F929F92AF92E2
:100E5000BF92EF92FF920F931F93CF93DF93CDB783
:100E6000DEB7A1970FB6F894DEBF0FBECDBF7C01F1
:100E7000FA01CB0119A2223008F42AE08E010F5D9D
:100E80001F4F822E912CB12CA12CBF01A5019401E2
:100E90000E94AF12F901CA016A300CF5605DD801F9
:100EA0006E938D01232B242B252B79F790E080E086
:100EB000109721F0BD01C7010E941607A1960FB639
:100EC000F894DEBF0FBECDBFDF91CF911F910F9180
:100ED000FF90EF90BF90AF909F908F900895695CC6
:100EE000DECF0F931F93CF93DF93EC01AB0170E044
:100EF00060E02AE00E9425078C016AE271E0CE01E1
:100F00000E941607800F911FDF91CF911F910F91C3
:100F100008956091020170910301FC01808191812B
:100F20000C9471070F931F93CF93DF93EC01462F1F
:100F300050E070E060E02AE00E9425078C016AE240
:100F400071E0CE010E941607800F911FDF91CF91B3
:100F50001F910F9108950F931F93CF93DF93EC018F
:100F60000E9416078C016AE271E0CE010E9416070A
:100F7000800F911FDF91CF911F910F9108950F93D3
:100F80001F93CF93DF93EC018B016DE271E08881B9
:100F900099810E9416070115110529F0B801888171
:100FA00099810E94160764E471E0888199810E940A
:100FB000AB076AE271E088819981DF91CF911F913F
:100FC0000F910C94AB07AC01425F5F4FFC01608551
:100FD000718590E080E00C946112EF92FF920F9384
:100FE0001F93CF93DF9300D0CDB7DEB77C010E9473
:100FF000E3078C0166E471E0009781F09A838983AE
:101000004AE050E0BE016F5F7F4F0E946D11298161
:101010003A812017310781F460E771E0F7018081A0
:1010200091810E94AB070F900F90DF91CF911F919C
:101030000F91FF90EF900895709303016093020168
:10104000F2CFCF93DF93EC010E94E307FC0188818C
:101050009981309731F460EA71E0DF91CF910C947F
:10106000AB0720816091040170910501213331F0BB
:10107000223389F76091000170910101DF91CF91D6
:101080000C9471075F926F927F928F929F92AF92B2
:10109000BF92CF92DF92EF92FF920F931F93CF9365
:1010A000DF93CDB7DEB764970FB6F894DEBF0FBEFF
:1010B000CDBF7C010E94E3078C010097E9F46BEB44
:1010C00071E0F701808191810E94AB0764960FB6B1
:1010D000F894DEBF0FBECDBFDF91CF911F910F916E
:1010E000FF90EF90DF90CF90BF90AF909F908F9048
:1010F0007F906F905F90089547E050E064ED71E05D
:101100000E943413892B09F04DC00E947C061F9267
:101110008F930CED11E01F930F93CE0101965C01AC
:101120009F938F930E9442131F926AE3962E9F9281
:1011300071EEC72E71E0D72EDF92CF92CE010396CB
:101140009F938F930E9442130E94C0061F928F9319
:101150001F930F93CE0104969F938F930E94421387
:101160001F929F92DF92CF92CE0106969F938F930C
:101170000E9442130E94EB061F928F931F930F93BE
:10118000CE0107969F938F930E944213B501F701FA
:10119000808191810E94AB070FB6F894DEBF0FBE2D
:1011A000CDBF94CF47E050E064EE71E0C8010E94EB
:1011B0003413892B09F069C00E9451061F928F9346
:1011C0004CEDC42E41E0D42EDF92CF92FE01319639
:1011D0005F01FF93EF930E9442131F925DE2952EF1
:1011E0009F9201EE11E01F930F93CE0103969F9300
:1011F0008F930E9442130E9420061F928F93DF92CA
:10120000CF92CE0104969F938F930E9442131F9218
:101210009F921F930F93CE0106969F938F930E94E8
:1012200042131F9282E38F931F930F93CE01079671
:101230009F938F930E9442131F9280E38F931F937B
:101240000F93CE0108969F938F930E9442130FB67F
:10125000F894DEBF0FBECDBF0E94F5051F928F939D
:10126000DF92CF92CE0109969F938F930E944213F3
:10127000B501F701808191810E94AB070F900F901B
:101280000F900F900F900F9021CF43E050E06CEE45
:1012900071E0C8010E943413892B09F0A3C01F928A
:1012A00082E38F9301EE11E01F930F93CE0101961D
:1012B0005C019F938F930E9442131F9280E38F9350
:1012C0001F930F93CE0102969F938F930E94421318
:1012D0000E94F5051F928F939CEDC92E91E0D92EA7
:1012E000DF92CF92CE0103969F938F930E94421379
:1012F0001F922DE2922E9F921F930F93CE0105967F
:101300009F938F930E9442130E9420061F928F93F7
:10131000DF92CF92CE0106969F938F930E94421345
:101320001F929F921F930F93CE0108969F938F93C6
:101330000E9442130FB6F894DEBF0FBECDBF0E94CD
:1013400051061F928F93DF92CF92CE0109969F9301
:101350008F930E9442131F9280E28F931F930F93EB
:10136000CE010B969F938F930E9442130E947C069E
:101370001F928F93DF92CF92CE010C969F938F9303
:101380000E9442131F923AE3932E9F921F930F9352
:10139000CE010E969F938F930E9442130E94C00627
:1013A0001F928F93DF92CF92CE010F969F938F93D0
:1013B0000E9442131F929F921F930F93CE0141965A
:1013C0009F938F930E9442130FB6F894DEBF0FBE17
:1013D000CDBF0E94EB061F928F93DF92CF92CE017A
:1013E000429642CF44E050E060EF71E0C8010E94B5
:1013F0003413892B51F4F701008111810E947C067E
:10140000682FC8010E94920761CE47E050E065EF67
:1014100071E0C8010E943413892B31F4F701008177
:1014200011810E94C006ECCF47E050E06CEF71E004
:10143000C8010E943413892B31F4F7010081118116
:101440000E94EB06DDCF44E050E063E072E0C801AB
:101450000E943413892B49F51F9282E38F9301EE8A
:1014600011E01F930F93CE0101966C019F938F9310
:101470000E9442131F9280E38F931F930F93CE011C
:1014800002969F938F930E9442130E94F5051F922C
:101490008F938CED91E09F938F93CE0103969F9352
:1014A0008F930E944213B60172CE45E050E068E08F
:1014B00072E0C8010E943413892B31F4F7010081D6
:1014C00011810E9420069CCF43E050E06EE072E064
:1014D000C8010E943413892B31F4F7010081118176
:1014E0000E9451068DCF0E94EB06982E0E94C006E6
:1014F000882E0E947C06782E0E945106582E0E944B
:101500002006682E0E94F505C82ED12C86010053B6
:10151000184FF701A080B180E52CF12CE8E6F0E04F
:1015200091E0961530F42491E20EF11C9F5F319604
:10153000F8CFF2E0F61578F4837069F4C60164E63A
:1015400070E00E949B12892B19F4C114D10419F484
:101550008FEFE81AF80A98012D5C374036952795E9
:10156000369527958DE691E0C89E8001C99E100DA5
:10157000D89E100D1124200F311F215031092E0D3E
:101580003F1DA8E1B0E00E9413139B01AC01270DA1
:10159000311D411D511DACE3B0E00E94D1129B01F1
:1015A000AC01280D311D411D511D0E94D112AB010E
:1015B000BC01490D511D611D711D40585C4B6249B4
:1015C000774C2AE0C5010E9425076AE271E0C50157
:1015D0000E9416077BCDAF92BF92CF92DF92EF921F
:1015E000FF920F931F93CF93DF9300D0CDB7DEB759
:1015F0006C010E94E3077C016BEB71E0892B59F1D0
:10160000C6010E94E3075C010097A1F462E172E069
:10161000F601808191810E94AB070F900F90DF91BE
:10162000CF911F910F91FF90EF90DF90CF90BF90DF
:10163000AF9008959A8389834AE050E0BE016F5FBE
:101640007F4F0E946D11062F89819A818A159B0513
:1016500031F46CE272E0D6018D919C91DCCF44E0D4
:1016600050E063E072E0C7010E943413892BF9F463
:1016700088E60E94920066E070E080918904909173
:101680008A040E94E102A0918904B0918A04802F0B
:101690006AE00E9422138295807F682F690FED9186
:1016A000FC9111970190F081E02DCD017EC045E0C5
:1016B00050E068E072E0C7010E943413892B31F4D6
:1016C00088E60E94920065E070E0D7CF43E050E0EA
:1016D0006EE072E0C7010E943413892B31F488E672
:1016E0000E94920064E070E0C8CF44E050E060EFF8
:1016F00071E0C7010E943413892B09F068C0102FD4
:1017000088E60E94920062E070E0809189049091E6
:101710008A040E94E1028091890490918A040E94C7
:10172000D4038091890490918A040E942D058091B0
:10173000890490918A04DC01ED91FC910284F38587
:10174000E02D099586FF39C021E00C3008F420E037
:101750000C3010F014EF100F111101C01CE0812F9C
:101760006AE00E9422138295807F980F30E085E026
:10177000220F331F8A95E1F7122F1064192B88E688
:101780000E94920062E070E08091890490918A0446
:101790000E94E1028091890490918A04DC01ED911C
:1017A000FC910190F081E02D612F099580918904D1
:1017B00090918A040E94D40330CF802F6AE00E9467
:1017C0002213182F1295107F190F1F7BD8CF46E0D8
:1017D00050E065EF71E0C7010E943413892B31F4AA
:1017E00088E60E94920061E070E047CF46E050E05A
:1017F0006CEF71E0C7010E943413892B09F00DCF03
:1018000088E60E94920070E060E0809189049091E7
:101810008A040E94E102A0918904B0918A04802F79
:101820006AE00E9422138295807F682F690FED91F4
:10183000FC9111970190F081E02DCD0109958091E7
:10184000890490918A040E94D40388E60E94920041
:101850006FE070E08091890490918A040E94E10217
:101860008091890490918A040E94D4038091890414
:1018700090918A040E942D058091890490918A0498
:10188000DC01ED91FC910284F385E02D0995182F80
:1018900088E60E9492006FE070E080918904909148
:1018A0008A040E94E1028091890490918A04612F48
:1018B0006F77DC01ED91FC910190F081E02D75CF07
:1018C00085ED8093BC008091580390915903A091BD
:1018D0005A03B0915B030796A11DB11D23E0B69595
:1018E000A795979587952A95D1F72091BC0024FD5F
:1018F00003C0109256030895409158035091590324
:1019000060915A0370915B03452B462B472B69F37B
:101910000097A105B10541F02AE22A95F1F700C030
:101920000197A109B109E1CF809157030C942D03D0
:101930001F920F920FB60F9211242F933F938F9304
:101940009F93AF93BF938091250390912603A0911D
:101950002703B09128033091240323E0230F2D3770
:1019600058F50196A11DB11D2093240380932503F2
:1019700090932603A0932703B09328038091290313
:1019800090912A03A0912B03B0912C030196A11DE5
:10199000B11D8093290390932A03A0932B03B09346
:1019A0002C03BF91AF919F918F913F912F910F90F9
:1019B0000FBE0F901F90189526E8230F0296A11DC9
:1019C000B11DD2CF1F920F920FB60F9211242F93F9
:1019D0003F934F935F936F937F938F939F93AF93B7
:1019E000BF93EF93FF9381ED93E00E945202FF912A
:1019F000EF91BF91AF919F918F917F916F915F9187
:101A00004F913F912F910F900FBE0F901F901895FF
:101A10001F920F920FB60F9211242F938F939F93C3
:101A2000EF93FF93E091E103F091E2038081E09175
:101A3000E703F091E80382FD1BC090818091EA03E7
:101A40008F5F8F732091EB03821741F0E091EA03DF
:101A5000F0E0EF52FC4F958F8093EA03FF91EF91F6
:101A60009F918F912F910F900FBE0F901F901895FF
:101A70008081F4CF1F920F920FB60F9211242F93F3
:101A80003F934F935F936F937F938F939F93AF9306
:101A9000BF93EF93FF938091B900887F803609F45C
:101AA0004AC0F0F5883209F4A7C018F5803109F46E
:101AB0009BC0B8F4882309F4F9C0883009F494C0B5
:101AC000FF91EF91BF91AF919F918F917F916F9116
:101AD0005F914F913F912F910F900FBE0F901F90EC
:101AE0001895883109F488C0803251F780935403E7
:101AF00014C0803409F49DC040F48033B9F38833B6
:101B0000F9F68093540385ECB0C0803509F485C0A4
:101B1000883509F496C0883499F60E94600CD0CFBD
:101B2000883909F48CC038F5883729F050F48836A4
:101B300011F0803729F683E08093560310921F033B
:101B400057C0883809F47BC0803919F0803809F013
:101B5000B7CF80911F03803208F071C0E0911F035E
:101B600081E08E0F80931F038091BB00F0E0E15075
:101B7000FD4F80833DC0803B39F0E0F4803A09F4AA
:101B800079C0883A09F09CCF84E080935603109284
:101B9000FE021092FD02E0912203F09123030995C9
:101BA0008091FD0281110FC081E08093FD021092AF
:101BB000DD0209C0803C09F4A6CF883C09F4A3CF1C
:101BC000883B09F07DCFE091FE0281E08E0F80938B
:101BD000FE02F0E0E352FD4F80818093BB009091C4
:101BE000FE028091FD0229C0809151038093BB00C9
:101BF00085EC8093BC0064CF909153038091520395
:101C0000981758F5E091530381E08E0F80935303AA
:101C1000F0E0E05DFC4F8081E9CFE091530381E08B
:101C20008E0F809353038091BB00F0E0E05DFC4F8A
:101C3000808390915303809152039817C8F285E8EE
:101C4000D8CFE091530381E08E0F809353038091AE
:101C5000BB00F0E0E05DFC4F808380915503811173
:101C60005CCF81E08093500384EA8093BC001092A3
:101C7000560326CF85EC8093BC00109256038091CA
:101C80001F03803230F4E0911F03F0E0E150FD4F7C
:101C9000108260911F0370E0E0912003F091210316
:101CA0008FEF92E0099510921F030ACF1092540310
:101CB00034CF8F929F92AF92BF92EF92FF920F9389
:101CC0001F93CF93DF93C1EDD3E01B821A8288EE7E
:101CD00093E0A0E0B0E08C839D83AE83BF832AE0D5
:101CE00031E03983288325EC30E03D872C8724ECD4
:101CF00030E03F872E8720EC30E0398B288B21ECB9
:101D000030E03B8B2A8B22EC30E03D8B2C8B26EC99
:101D100030E03F8B2E8B198E1A8E1B8E1C8E22E884
:101D2000E22E23E0F22EF701138212828483958340
:101D3000A683B7838CE191E09183808306E914E068
:101D400085E0F801808386E08183128261E085E08E
:101D50000E944A0160E0F80181810E944A0130E25C
:101D6000832E3EE4932EA12CB12CF801878290861D
:101D7000A186B2860BE814E083E0F801808384E05A
:101D80008183128261E083E00E944A0160E0F801F1
:101D900081810E944A01F80187829086A186B286DD
:101DA000F0928A04E0928904EEE6F4E0D183C083E5
:101DB00081EB93E0938382838FE190E0958384832A
:101DC0008AE291E0978386838DE992E0918780870C
:101DD000138612861586148617861686108A128A2E
:101DE000118A148A138A168A158A108E178A118E00
:101DF000128EEAEAF3E08CE492E0918380838DEE28
:101E000097E093838283158214821682E3EAF3E0DB
:101E10008BE592E09183808389E897E093838283C6
:101E2000158214821682ECE9F3E08AE692E091834F
:101E3000808381E298E093838283158214821682E4
:101E4000E5E9F3E086E792E09183808382E498E01D
:101E500093838283158214821682EEE8F3E08EE784
:101E600092E0918380838BEE9AE093838283158244
:101E700014821682DF91CF911F910F91FF90EF9006
:101E8000BF90AF909F908F900895789484B58260B2
:101E900084BD84B5816084BD85B5826085BD85B50E
:101EA000816085BD80916E00816080936E0010928C
:101EB0008100809181008260809381008091810007
:101EC0008160809381008091800081608093800098
:101ED0008091B10084608093B1008091B0008160F6
:101EE0008093B00080917A00846080937A00809122
:101EF0007A00826080937A0080917A00816080937A
:101F00007A0080917A00806880937A001092C100F4
:101F1000E091E103F091E20382E08083E091DD0350
:101F2000F091DE031082E091DF03F091E0038FEC8B
:101F300080831092E903E091E503F091E60386E0E7
:101F40008083E091E303F091E403808180618083EA
:101F5000E091E303F091E403808188608083E09165
:101F6000E303F091E403808180688083E091E303E0
:101F7000F091E40380818F7D808381E090E0A0E098
:101F8000B0E08093D5039093D603A093D703B0938A
:101F9000D80310925D0310925C0310927F0310929D
:101FA0007E030E940F0382ED91E0909323038093C0
:101FB000220383ED91E0909321038093200361E05D
:101FC00082E00E944A0161E087E00E944A018FEBB3
:101FD00097E090937904809378048AEA93E00E94D2
:101FE0009C0083EA93E00E949C008CE993E00E94AD
:101FF0009C0085E993E00E949C008EE893E00E949B
:102000009C0008E310E080E0E82E80E0F82E86E9EE
:1020100094E00E94BE04B8010E949B12EB017093F1
:1020200005016093040164EF71E080E090E00E949C
:10203000A001809102019091030161E0C817D907C6
:1020400008F060E08DE00E941C0166E872E081ED1E
:1020500093E00E941607409104015091050170E041
:1020600060E02AE081ED93E00E9425076FE972E0CD
:1020700081ED93E00E94AB0764EF71E080E090E0B7
:102080000E94A0018BE894E00E94BE04B8010E9467
:102090009B12709301016093000180910201909165
:1020A00003016817790708F09FC061E08DE00E9486
:1020B0001C0164EF71E080E090E00E94A00163EAFF
:1020C00072E081ED93E00E9416074091000150916B
:1020D000010170E060E02AE081ED93E00E942507B5
:1020E0006FE972E081ED93E00E94AB0764EF71E06D
:1020F00080E090E00E94A00180916E0490916F04B6
:10210000892B09F45FC080916E0490916F04DC010B
:10211000ED91FC910084F185E02D099518161906C2
:102120000CF050C080916E0490916F04DC01ED9131
:10213000FC910284F385E02D0995BC01181619065F
:1021400014F780917A0490917B04E0917004F091EF
:1021500071042091720430917304821793075CF527
:102160009C012F5F3F4F30937B0420937A04E80F4C
:10217000F91F608320917A0430917B04213031056E
:10218000C9F5E0918304F0918404A0917004B091AA
:102190007104309779F1C081D1819C918881981325
:1021A00025C00280F381E02D8EE694E00995E09150
:1021B0007004F0917104108210927B0410927A04E2
:1021C00010927E0468EE73E080E090E00E94A0012F
:1021D000E114F10409F41BCF0E943E02882309F4A4
:1021E00016CF0E94000013CF60E060CF0480F5811D
:1021F000E02DCFCFA0917404B091750490917E042E
:10220000FD01E90FF11D97FDFA954081042E000CA8
:10221000550B6417750719F010927E0474CF81E096
:10222000890F80937E04FD01E80FF11D87FDFA956B
:102230008081811168CFFD0101900020E9F731977D
:10224000EA1BFB0B2E1B3F0B8091700490917104D5
:10225000280F391FF901108260917604709177047C
:102260004CE754E080917004909171040E946112D7
:102270006C01892BC9F0C0917F04D0918004209714
:1022800009F168817981DB010D900020E9F7AD014A
:10229000461B570BC6010E943413892B79F4EA813F
:1022A000FB818EE694E00995E0917004F091710451
:1022B000108210927B0410927A04AECF0C80DD81E4
:1022C000C02DDDCFE0917804F0917904309761F36F
:1022D000B6018EE694E00995E7CFB0E0A0E0E3E731
:1022E000F1E10C94DD125C016B017A01611571055D
:1022F00019F0FB0191838083E114F10449F0C701D7
:102300000297839728F060E070E0CB019CC05E01EB
:10231000E5012196F5011081812F90E00E9458126D
:10232000892BA9F71D3209F056C02196F5011181BC
:1023300001E0E114F10409F4AEC0F0E1EF16F1049C
:1023400009F08EC0103341F488818F7D883509F003
:1023500083C0198122960260E0E1EE2EF12C8824E0
:102360008A94982CA82CFFE0BF2E20E060E070E05B
:10237000CB0127010F2C000C66087708FE0150EDF9
:10238000352E310E39E0331538F43FEB310F3A3149
:10239000A0F549EC342E310E3E141F04BCF52F3F3E
:1023A000B9F086169706A806B90670F1A301920146
:1023B0000E948B12232D30E050E040E0620F731F2B
:1023C000841F951F6217730784079507E8F021E0C3
:1023D00021961081D3CF1B3221F4E5012296F5011D
:1023E000118100E0A6CF78E0E72EF12C88248A94B2
:1023F000982CA82C6FE1B62EB8CF3FE9310F3A31B7
:1024000028F439EA332EC7CF2FEFE2CFC114D1041D
:1024100031F02223E9F02197F601D183C08300FF38
:1024200007C090958095709561957F4F8F4F9F4F16
:102430002F3F49F482E290E09093A2048093A1049C
:102440006FEF7FEFCB01CDB7DEB7E1E10C94F9126E
:1024500001FFE5CF2297E0CF10E3E114F10419F278
:102460003AE0E316F104E9F080E1E816F10409F43A
:1024700073CFE8E0EE16F10409F4B8CF6FEF7FEF09
:10248000CB0197010F2C000C440B550B0E94AF128F
:1024900049015A016ACF103309F456CF9AE0E92E68
:1024A000F12C89E9882E982CA82C89E1B82E5DCFD3
:1024B00091110C948812803219F089508550C8F718
:1024C0000895FA01A191B081009719F41097E1F0F5
:1024D000CD01DC01CD010D90002011F4C00113C02D
:1024E000FB012191222319F02015D9F7F3CFFB012D
:1024F0002191201519F41E92119606C02223C1F7CE
:102500000D900020A1F7D001FA01A193B0830895A6
:10251000992788270895DB018F939F930E94D112FA
:10252000BF91AF91A29F800D911DA39F900DB29F6F
:10253000900D11240895AA1BBB1B51E107C0AA1FCF
:10254000BB1FA617B70710F0A61BB70B881F991F54
:102550005A95A9F780959095BC01CD010895A1E207
:102560001A2EAA1BBB1BFD010DC0AA1FBB1FEE1F0D
:10257000FF1FA217B307E407F50720F0A21BB30B58
:10258000E40BF50B661F771F881F991F1A9469F7D4
:1025900060957095809590959B01AC01BD01CF0130
:1025A00008950E941313A59F900DB49F900DA49FB2
:1025B000800D911D112408952F923F924F925F92AA
:1025C0006F927F928F929F92AF92BF92CF92DF9243
:1025D000EF92FF920F931F93CF93DF93CDB7DEB7A8
:1025E000CA1BDB0B0FB6F894DEBF0FBECDBF09943C
:1025F0002A88398848885F846E847D848C849B8493
:10260000AA84B984C884DF80EE80FD800C811B81A0
:10261000AA81B981CE0FD11D0FB6F894DEBF0FBECF
:10262000CDBFED010895A29FB001B39FC001A39F4C
:10263000700D811D1124911DB29F700D811D1124FB
:10264000911D0895991B79E004C0991F961708F011
:10265000961B881F7A95C9F780950895EE0FFF1F86
:102660000590F491E02D0994FB01DC0141505040AC
:1026700030F08D910190801919F40020B9F7881B72
:10268000990B0895AEE0B0E0E8E4F3E10C94EA12AF
:102690000D891E8986E08C831A8309838FEF9FE75B
:1026A0009E838D83AE01475E5F4F6F89788DCE012B
:1026B00001960E9465132F813885020F131FF801C0
:1026C00010822E96E4E00C940613ABE0B0E0EBE64B
:1026D000F3E10C94DC127C013B018A01FC011782BE
:1026E0001682838181FFC8C1CE0101965C01F7018A
:1026F0009381F30193FD859193FF81913F0188239D
:1027000009F453C1853239F493FD859193FF81918A
:102710003F01853229F4B70190E00E945515E7CFBB
:10272000912C212C312CFFE1F31538F08B3211F173
:1027300090F4803209F1833229F137FC3CC020ED5E
:10274000280F2A3050F536FE20C08AE0989E200DD2
:102750001124922E06C08D3291F0803371F7689467
:1027600030F8F30193FD859193FF81913F01811131
:10277000DACF21C0689431F8689432F8F2CF6894C7
:1027800033F8EFCF689434F8ECCFEAE02E9E200DBA
:102790001124222E689435F8E4CF8E3229F436FCC9
:1027A00004C1689436F8DDCF8C3619F4689437F894
:1027B000D8CF8836B1F2982F9F7D95549330E0F0B2
:1027C0008336A1F18337C1F1833509F063C0280155
:1027D000F2E04F0E511CF801C080D180692D70E0ED
:1027E00036FC02C06FEF7FEFC6010E943F154C011F
:1027F000689437F882010AC00C5F1F4FFFE3F9832A
:1028000088248394912C6501E89437F833FE2DC019
:10281000522C8114910471F5552009F468CFB70149
:1028200080E290E00E9455155A94F6CFF80180811D
:1028300089830E5F1F4FE4CF2801F2E04F0E511C39
:10284000F801C080D180692D70E036FC02C06FEFC6
:102850007FEFC6010E944A154C018201D5CFB70116
:1028600080E290E00E9455152A942814190409F07A
:10287000B0F7CECFF60137FC859137FE81916F011D
:10288000B70190E00E94551551105A94F1E08F1A4B
:102890009108BFCF843619F0893609F077C0F80166
:1028A00037FE6BC060817181828193810C5F1F4F05
:1028B000F32DFF763F2E97FF09C090958095709578
:1028C00061957F4F8F4F9F4F689437F82AE030E033
:1028D000A5010E948515C82ECA188C2C432C36FEE3
:1028E0000CC0E89440F8C91440F434FE05C032FC32
:1028F00003C0F32DFE7E4F2E892C44FE95C0FE01B1
:10290000EC0DF11D8081803309F087C0242D297ED4
:10291000422E842D8870582E43FC95C040FE8FC0F7
:102920009C2C821418F42C0C922C981844FE91C004
:10293000B70180E390E00E94551542FE09C088E788
:1029400090E041FE02C088E590E0B7010E94551575
:10295000C91408F48AC0CA94D12C9FEFC91AD90AA5
:10296000CA0CDB1CF60182916F01B70190E00E9456
:102970005515AC14BD04B1F74FCF60817181072E9E
:10298000000C880B990B0E5F1F4F92CFD32CE8944D
:10299000D4F82AE030E0853739F1232D297FD22E73
:1029A0008F3601F148F48835A9F0F70186819781C7
:1029B0002B96E2E10C94F812803749F08837A9F79A
:1029C000D4FE02C06894D2F820E130E00DC06894D3
:1029D000D4F8F6CF34FE03C0822F8660D82E20E1D3
:1029E00032E002C028E030E0F801D7FE0FC060817D
:1029F0007181828193810C5F1F4FA5010E94851513
:102A0000C82ECA183D2CE89437F867CF60817181D1
:102A100090E080E00E5F1F4FF0CF42FC02C0839435
:102A200078CF8394839475CF842D867809F471CF01
:102A3000F6CFB70180E290E00E945515839482148E
:102A4000C0F3512C73CF522C5818821408F46ECF57
:102A5000F8CF842D867809F47BCF8BE241FE80E2AB
:102A600047FC8DE2B70190E071CFB70180E390E0C1
:102A70000E9455159A946CCF8FEF9FEF99CFFC0170
:102A80000590615070400110D8F7809590958E0F99
:102A90009F1F0895FC016150704001900110D8F70C
:102AA000809590958E0F9F1F08950F931F93CF933E
:102AB000DF93182F092FEB018B8181FD09C01FEFD8
:102AC0000FEF812F902FDF91CF911F910F910895DC
:102AD00082FF14C02E813F818C819D812817390788
:102AE0003CF4E881F981CF010196998388831083B2
:102AF0008E819F8101969F838E83E3CFE885F98540
:102B0000812F0995892BA1F3DACFFA01AA27283062
:102B100051F1203181F1E8946F936E7F6E5F7F4FAA
:102B20008F4F9F4FAF4FB1E03ED0B4E03CD0670F26
:102B3000781F891F9A1FA11D680F791F8A1F911D79
:102B4000A11D6A0F711D811D911DA11D20D009F4C9
:102B500068943F912AE0269F11243019305D31930B
:102B6000DEF6CF010895462F4770405D4193B3E0F4
:102B70000FD0C9F7F6CF462F4F70405D4A3318F09B
:102B8000495D31FD4052419302D0A9F7EACFB4E04C
:102B9000A6959795879577956795BA95C9F7009704
:102BA0006105710508959B01AC010A2E06945795A5
:102BB000479537952795BA95C9F7620F731F841FFC
:0A2BC000951FA01D0895F894FFCFA3
:102BCA00FFFF0A00FFFF000000007402D4010102A7
:102BDA00C10232021002240200000000A503780399
:102BEA00BB044E0371035E034F030D0A00556E7258
:102BFA0065636F676E697A656420636F6D6D616E78
:102C0A0064205B005D004552524F523A206E6F209D
:102C1A0076616C75652073706563696669656420A1
:102C2A006F66206D61782064697374616E636500F4
:102C3A004552524F523A206E6F2076616C69642079
:102C4A0076616C7565207370656369666965642071
:102C5A006F66206D61782064697374616E636500C4
:102C6A004552524F523A206E6F2064657669636509
:102C7A0020737065636966696564004552524F52F4
:102C8A003A206E6F206D6F646520737065636966A4
:102C9A0069656400616C6C74696D65002530327514
:102CAA0000256300616C6C6461746500616C6C0082
:102CBA00686F7572006D696E757465007365636F10
:102CCA006E640079656172006D6F6E74680064618C
:102CDA0079004552524F523A206E6F2076616C75D8
:102CEA006520737065636966696564004552524F71
:102CFA00523A206E6F2076616C69642076616C7539
:102D0A006520737065636966696564007365746DCF
:102D1A00617864697374616E6365006765746D6177
:102D2A007864697374616E63650067657464697356
:102D3A0074616E63650067657474696D65007365B7
:102D4A007474696D650044697374616E63652066A5
:102D5A00726F6D2073656E736F7220313A20002096
:102D6A00636D0044697374616E63652066726F6D8A
:0C2D7A002073656E736F7220323A2000E7
:00000001FF
